{
    "contractName": "Payable",
    "abi": [
        {
            "inputs": [],
            "stateMutability": "payable",
            "type": "constructor"
        },
        {
            "anonymous": false,
            "inputs": [
                {
                    "indexed": false,
                    "internalType": "address",
                    "name": "sender",
                    "type": "address"
                },
                {
                    "indexed": false,
                    "internalType": "uint256",
                    "name": "amount",
                    "type": "uint256"
                },
                {
                    "indexed": false,
                    "internalType": "uint256",
                    "name": "balance",
                    "type": "uint256"
                }
            ],
            "name": "Deposit",
            "type": "event"
        },
        {
            "anonymous": false,
            "inputs": [
                {
                    "indexed": false,
                    "internalType": "address",
                    "name": "to",
                    "type": "address"
                },
                {
                    "indexed": false,
                    "internalType": "uint256",
                    "name": "amount",
                    "type": "uint256"
                },
                {
                    "indexed": false,
                    "internalType": "uint256",
                    "name": "balance",
                    "type": "uint256"
                }
            ],
            "name": "Transfer",
            "type": "event"
        },
        {
            "anonymous": false,
            "inputs": [
                {
                    "indexed": false,
                    "internalType": "uint256",
                    "name": "amount",
                    "type": "uint256"
                },
                {
                    "indexed": false,
                    "internalType": "uint256",
                    "name": "balance",
                    "type": "uint256"
                }
            ],
            "name": "Withdraw",
            "type": "event"
        },
        {
            "inputs": [],
            "name": "deposit",
            "outputs": [],
            "stateMutability": "payable",
            "type": "function"
        },
        {
            "inputs": [],
            "name": "getBalance",
            "outputs": [
                {
                    "internalType": "uint256",
                    "name": "",
                    "type": "uint256"
                }
            ],
            "stateMutability": "view",
            "type": "function"
        },
        {
            "inputs": [],
            "name": "notPayable",
            "outputs": [],
            "stateMutability": "nonpayable",
            "type": "function"
        },
        {
            "inputs": [],
            "name": "owner",
            "outputs": [
                {
                    "internalType": "address payable",
                    "name": "",
                    "type": "address"
                }
            ],
            "stateMutability": "view",
            "type": "function"
        },
        {
            "inputs": [
                {
                    "internalType": "address payable",
                    "name": "_to",
                    "type": "address"
                },
                {
                    "internalType": "uint256",
                    "name": "_amount",
                    "type": "uint256"
                }
            ],
            "name": "transfer",
            "outputs": [],
            "stateMutability": "nonpayable",
            "type": "function"
        },
        {
            "inputs": [
                {
                    "internalType": "uint256",
                    "name": "_amount",
                    "type": "uint256"
                }
            ],
            "name": "withdraw",
            "outputs": [],
            "stateMutability": "nonpayable",
            "type": "function"
        }
    ],
    "bytecode": "60806040525f80546001600160a01b03191633179055610353806100225f395ff3fe608060405260043610610054575f3560e01c806312065fe014610058578063273884bd146100775780632e1a7d4d146100865780638da5cb5b146100a5578063a9059cbb146100db578063d0e30db0146100fa575b5f80fd5b348015610063575f80fd5b506040514781526020015b60405180910390f35b348015610082575f80fd5b505b005b348015610091575f80fd5b506100846100a03660046102d1565b610102565b3480156100b0575f80fd5b505f546100c3906001600160a01b031681565b6040516001600160a01b03909116815260200161006e565b3480156100e6575f80fd5b506100846100f53660046102e8565b6101c5565b610084610291565b5f546001600160a01b031633146101535760405162461bcd60e51b815260206004820152601060248201526f26bab9ba10313290309039b2b73232b960811b60448201526064015b60405180910390fd5b5f80546040516001600160a01b039091169183156108fc02918491818181858888f19350505050158015610189573d5f803e3d5ffd5b50604080518281524760208201527f56ca301a9219608c91e7bcee90e083c19671d2cdcc96752c7af291cee5f9c8c8910160405180910390a150565b5f546001600160a01b031633146102115760405162461bcd60e51b815260206004820152601060248201526f26bab9ba10313290309039b2b73232b960811b604482015260640161014a565b6040516001600160a01b0383169082156108fc029083905f818181858888f19350505050158015610244573d5f803e3d5ffd5b50604080516001600160a01b038416815260208101839052478183015290517f7fa9aafeb8bb803d77de5d84bc2f2edbd842ca91b20cd5020aa21dfe26ab0be99181900360600190a15050565b60408051338152346020820152478183015290517f90890809c654f11d6e72a28fa60149770a0d11ec6c92319d6ceb2bb0a4ea1a159181900360600190a1565b5f602082840312156102e1575f80fd5b5035919050565b5f80604083850312156102f9575f80fd5b82356001600160a01b038116811461030f575f80fd5b94602093909301359350505056fea2646970667358221220ce835bc92042cf2dc54cd20b0b5e4333ddf94e20b57caf3e2b25cbf036867a0164736f6c63430008190033",
    "sourcePath": "/Users/pepukrit/Desktop/Software development/akaMiWP/learn-solidity/contracts/Payable.sol",
    "compiler": {
        "name": "solc",
        "version": "0.8.25+commit.b61c2a91"
    },
    "functionHashes": {
        "deposit()": "d0e30db0",
        "getBalance()": "12065fe0",
        "notPayable()": "273884bd",
        "owner()": "8da5cb5b",
        "transfer(address,uint256)": "a9059cbb",
        "withdraw(uint256)": "2e1a7d4d"
    },
    "gasEstimates": {
        "creation": {
            "codeDepositCost": "170200",
            "executionCost": "24422",
            "totalCost": "194622"
        },
        "external": {
            "deposit()": "1815",
            "getBalance()": "145",
            "notPayable()": "121",
            "owner()": "2379",
            "transfer(address,uint256)": "infinite",
            "withdraw(uint256)": "infinite"
        }
    }
}